:020000040800F2
:1000000068310120DD030008A5C70008098C00083D
:1000100005BB0008DD2E000895080108000000005F
:100020000000000000000000000000001D030008A8
:100030002D410008000000007903000801DE0008DF
:10004000F7030008F7030008F7030008F7030008A8
:10005000C5440008F7030008F7030008F703000889
:10006000F7030008574200085D420008F703000844
:10007000993D0008A53D0008F7030008F7030008B4
:10008000F7030008F7030008F7030008F703000868
:10009000B92F0008C52F0008F703000863420008C5
:1000A000F7030008F7030008F7030008F703000848
:1000B000F7030008F7030008F7030008F703000838
:1000C000F7030008198C00080D8C0008A9D500085A
:1000D000B5D5000871EB0008F70300087DEB0008B8
:1000E000F7030008F7030008F7030008F703000808
:1000F000F7030008D1DE0008F7030008B13D00084F
:10010000F7030008F7030008F7030008F7030008E7
:10011000F7030008F7030008F7030008F7030008D7
:10012000BD3D0008F7030008C93D0008D53D0008A3
:10013000F7030008F7030008F7030008F7030008B7
:10014000D12F0008DD2F0008F703000871C8000850
:10015000E13D0008ED3D0008F93D000889EB00088D
:10016000318C0008258C0008F7030008F70300080D
:10017000F7030008F7030008F70300080000000079
:10018000F7030008F703000800F002F800F0B6F8E3
:100190000AA090E8000C82448344AAF10107DA45E2
:1001A00001D100F0ABF8AFF2090EBAE80F0013F07E
:1001B000010F18BFFB1A43F001031847404101002B
:1001C000604101000A444FF0000C10F8013B13F0AD
:1001D000070408BF10F8014B1D1108BF10F8015BA0
:1001E000641E05D010F8016B641E01F8016BF9D193
:1001F00013F0080F1EBF10F8014BAD1C0C1B09D1EA
:100200006D1E58BF01F801CBFAD505E014F8016B5B
:1002100001F8016B6D1EF9D59142D6D370470000ED
:100220000023002400250026103A28BF78C1FBD8FF
:10023000520728BF30C148BF0B6070476E2900F0DD
:100240005685702900F09986662912F0DA856529AD
:1002500012F0D785672912F0D485612912F0D38571
:1002600003681B0A28BF41F08001692900F0A481BE
:10027000642900F0A181752900F09E816F2900F0AA
:100280002686782900F06586E92900F0C185E429F1
:1002900000F0BE85F52900F0BB85EF2900F023862C
:1002A000F82900F064860368DB0928BF41F080016B
:1002B000632901F06B82732901F07082E32901F058
:1002C0007B82F32901F08082002070471FB512F075
:1002D0008AFD9DE8030000F0E7FB01F0CFFA04007F
:1002E0000020002112F06EFC401C60600020002104
:1002F00012F052FCE0601FBD10B510BD01F090FA85
:100300001146FFF7E3FF11F05FFD01F06DFB03B451
:10031000FFF7F2FF03BC01F09DFB00002C4B1968B6
:100320000868B0E8F04F80F30988BFF36F8F4FF093
:10033000000080F311887047000000000848006842
:10034000006880F308884FF0000080F3148862B6DC
:1003500061B6BFF34F8FBFF36F8F00DF00BF00BFE9
:1003600008ED00E0DFF80C00016841F47001016065
:10037000704700BF88ED00E0EFF30980BFF36F8F97
:10038000134B1A681EF0100F08BF20ED108A20E9E9
:10039000F04F106009B44FF0500080F31188BFF3A4
:1003A0004F8FBFF36F8F12F02FFA4FF0000080F3E2
:1003B000118809BC19680868B0E8F04F1EF0100FEA
:1003C00008BFB0EC108A80F30988BFF36F8F7047C5
:1003D0008C000020EFF3058070470000094880473B
:1003E00009480047FEE7FEE7FEE7FEE7FEE7FEE717
:1003F000FEE7FEE7FEE7FEE704480549054A064B2F
:1004000070470000C1DE00088901000868910020E3
:100410006831012068E1002068E1002070B50646DF
:1004200000F026FB056806F10B0020F00704B4423B
:100430009CBF002070BD2B466A68BAB11068A0420C
:1004400010D304F1080188423CBF5068586007D3BC
:100450005168101941601168091B016058601460EF
:10046000101D70BD13465268002AE7D12146284668
:1004700000F006FB0028DED170BD53EA020C00F04C
:1004800069802DE9F04B4FF00006002B1FBFB3FA37
:1004900083F503FA05F424FA05F65E4012BF16430D
:1004A000B2FA82F502FA05F4C5F120051EBF22FA60
:1004B00005FC44EA0C04203556EA044C4FEA144487
:1004C00018BF641C4FF000084FF00009904271EB18
:1004D000030C39D3002919BFB1FA81F701FA07F6E5
:1004E000B0FA80F700FA07F6C7F120071EBF20FA1E
:1004F00007FC46EA0C062037B6FBF4FCA7EB050721
:10050000103F07F01F0BCBF120060CFA0BFB2CFA67
:1005100006F644BFB3460026202FA4BF5E464FF028
:10052000000B5BEA060C08BF4FF0010B19EB0B093F
:10053000ABFB027C48EB0608C01B06FB02CC0BFBA6
:1005400003CC71EB0C01C1E70B460246414648461D
:10055000BDE8F08B13B54FF000004FF00001AFF392
:100560000080BDE81C4070471CB50C46064B7B4420
:1005700069460090204600F0D4FB044600206946FE
:1005800000F0E2FB20461CBDD70700000FB41CB5ED
:10059000084B06AA7B4469460090059800F0C1FB11
:1005A00004460020694600F0CFFB20461CBC5DF8E5
:1005B00014FB0000B10700002DE9F04106460024BD
:1005C00010687529314616A510D000F0FCFA0028F5
:1005D00002DA404213A507E031688A0701D512A567
:1005E00002E0490704D511A5012401E000F0F4FA66
:1005F00000210A2206F1240709E0B0FBF2FCB0FB5F
:10060000F2F302FB1C00303078541846491C0028D5
:10061000F3D123462A463046BDE8F04100F00EBB38
:10062000000000002D0000002B0000002000000052
:100630002DE9F05F894604464FF0000ADFF874B1F7
:10064000FB44C0F820A02046E1688847002874D009
:10065000252806D0D4E901219047206A401C206259
:10066000F1E700265F462046E168884720280546D6
:1006700007DB312D05D2781910F8200C08B106439C
:10068000F1E7B00701D526F00406C4F81CA0002746
:10069000C4F818A02A2D09D0284610F0F1FF38B36D
:1006A00004EB8708303DC8F8185019E059F8041BCE
:1006B000204604EB87029161E1688847012F0546D7
:1006C00018D1E069002820DA26F020061DE0D8F8CD
:1006D000180000EB800005EB40003038C8F8180027
:1006E0002046E1688847054610F0CAFF0028EED191
:1006F000012F0AD02E2D08D12046E16888477F1CA3
:100700000546022F46F02006C4DBA069002803DA64
:10071000404246F00106A061F00701D026F0100625
:100720006C2D0BD0682D09D04C2D39D06A2D35D0C9
:10073000742D35D07A2D33D016E038E0E1682F469D
:1007400020468847B842054609D16C2F26D04FF481
:100750008060E168064320468847054604E06C2F28
:100760001AD04FF4807006430DB3A5F1410019284B
:1007700002D8203546F400664A46294620462660BF
:100780004E46FFF75BFD80B101280BD0F61D26F029
:10079000070000F1080956E74020E4E78020D8E789
:1007A0000020D6E706F104094DE7284652E7206A03
:1007B000BDE8F09FAD30010040EA0103024630B5CC
:1007C0009B0710D14FF0013400E008C208C91D1B7F
:1007D0009D4315EAC41FF8D013F0FF0102F8011B76
:1007E0000DD01B0AF8E711F8013B002B02F8013B82
:1007F00005D011F8013B002B02F8013BF3D130BDCD
:1008000010B5431C02E010F8011B71B18107FAD149
:100810004FF0013202C88C1A8C4314EAC211F9D08D
:10082000C01A0A0603D0C01E10BDC01A10BD0A04AB
:1008300001D0801E10BD0902FCD0401E10BD421E1A
:1008400012F8013F002BFBD111F8013B002B02F8FD
:10085000013BF9D17047032A40F2308010F0030CBD
:1008600000F0158011F8013BBCF1020F624498BF03
:1008700011F801CB00F8013B38BF11F8013BA2F1A0
:10088000040298BF00F801CB38BF00F8013B11F01B
:10089000030300F02580083AC0F0088051F8043BBB
:1008A000083A51F804CBA0E80810F5E7121D5CBF28
:1008B00051F8043B40F8043BAFF30080D20724BF5B
:1008C00011F8013B11F801CB48BF11F8012B24BFEF
:1008D00000F8013B00F801CB48BF00F8012B70473E
:1008E00010B5203AC0F00B80B1E81850203AA0E8CB
:1008F0001850B1E81850A0E81850BFF4F5AF5FEAFF
:10090000027C24BFB1E81850A0E8185044BF18C9B1
:1009100018C0BDE810405FEA827C24BF51F8043B58
:1009200040F8043B08BF7047D20728BF31F8023BAC
:1009300048BF11F8012B28BF20F8023B48BF00F840
:10094000012B704702F0FF0343EA032242EA02420E
:1009500000F002B84FF000020429C0F0128010F03D
:10096000030C00F01B80CCF1040CBCF1020F18BF8B
:1009700000F8012BA8BF20F8022BA1EB0C0100F01E
:100980000DB85FEAC17C24BF00F8012B00F8012BF1
:1009900048BF00F8012B70474FF0000200B5134626
:1009A00094469646203922BFA0E80C50A0E80C508F
:1009B000B1F12001BFF4F7AF090728BFA0E80C5040
:1009C00048BF0CC05DF804EB890028BF40F8042B39
:1009D00008BF704748BF20F8022B11F0804F18BFA6
:1009E00000F8012B704700004FF0013C50F8042B39
:1009F00051F8043B9A4221D1A2EB0C03934313EA32
:100A0000CC1317D150F8042B51F8043B9A4215D15E
:100A1000A2EB0C03934313EACC130BD150F8042B35
:100A200051F8043B9A4209D1A2EB0C03934313EA19
:100A3000CC13DBD04FF00000704700BFD01A01BAD2
:100A4000B1FA81F101F0180122FA01F0CB40C1F1B5
:100A50002001DBB2C0B2C01A2CFA01F3D11A9143C3
:100A600011EAC311E6D17047704770477047000024
:100A700000487047109100207047704770477047DA
:100A800038B504460A4600206946AFF300800028C6
:100A900008BF38BD02460099204600F081FA0120C7
:100AA00038BD012000F0B4BEF8B5AFF300800546B4
:100AB00000200C46102000BF0646A819A0420DD900
:100AC000324669460020AFF30080070008BF00F0FF
:100AD0009FFE0098A04218BF0546C419FFF7C8FF43
:100AE00005600746F01D20F007004619284600F073
:100AF0000AF8B44208BFF8BDA21B31463868BDE809
:100B0000F84000F04DBA00210160C0E901107047C3
:100B10001020704770B50446051FFFF7A9FF006855
:100B2000002C14BF446870BD002C18BFAC423CBF01
:100B300020466468F8D301680A18AA4218BF4560C5
:100B400003D12A6805461144016028684119A14271
:100B50001CBF6C6070BD61686960216808442860D2
:100B600070BD10B500F018FA006810BD10B504464D
:100B700000F012FA046010BD70B504468569006883
:100B8000C10601D5302600E02026C00707D070BD81
:100B9000D4E9012130469047206A401C20626D1E36
:100BA000F6D570BD70B5044685690078C00707D1D9
:100BB00070BDD4E9012120209047206A401C2062AA
:100BC0006D1EF6D570BD09684A0501D540B2704763
:100BD000C905FCD500B2704709684A0501D5C0B205
:100BE0007047C905FCD580B2704770B50C46054604
:100BF000012A05D02878800600D5EA69002302E0A2
:100C0000012305E05B1C934202D2E05C0028F9D18D
:100C1000A869E618C01AA861286A184428622846FC
:100C2000FFF7AAFF04E0D5E9012114F8010B904772
:100C3000B442F8D32846FFF7B5FF70BD2DE9F04761
:100C40000D4699469246044600F12408016888063C
:100C500004D5E06921F01001216000E00120A842E4
:100C600001DD471B00E00027A1697A1902EB0900AA
:100C7000081AA0612078C00602D42046FFF77CFF46
:100C8000002608E0D4E901211AF806009047206AFE
:100C9000401C761C20624E45F4DB2078C0060AD545
:100CA0002046FFF769FF06E0D4E901213020904794
:100CB000206A401C2062381EA7F10107F4DC07E01F
:100CC000D4E9012118F805009047206A401C2062F1
:100CD000281EA5F10105F3DC2046FFF763FF20780D
:100CE000000602D50220BDE8F0870120FBE711686D
:100CF0000268006A530501D508700AE0D30501D5E2
:100D0000088006E0130603D5C217C1E9000200E01F
:100D1000086001207047000001694A1C02610878E0
:100D2000704700B58FB0CDE901310021059105492B
:100D30007944CDE9031011466846FFF779FC0FB0FE
:100D400000BD0000E5FFFFFF0A6802F8010B0A6022
:100D5000704700002DE9FF5F15468A460446DFF81C
:100D6000AC80F8440027D8E900103E46CDE90010D9
:100D700010E03AF816106A4602A800F029FD411C5E
:100D800007D02178890603D5E269391891420DD838
:100D90000744761C2078800602D5E069B84205DD5C
:100DA000AE42E6DB3AF816000028E2D1A069C01B8B
:100DB000A0612046FFF7E0FED8E90010CDE9001061
:100DC000002017E03AF818106A4602A800F000FD6B
:100DD000B0F1FF3F81460BD000250DF1080B05E077
:100DE000D4E901211BF8050090476D1C4D45F7D350
:100DF00008F10100B0428046E4DB206A38442062FA
:100E00002046FFF7CFFEBDE8FF9F00009E290100AE
:100E10002DE9F0418046D21D22F007020025D2E9DB
:100E20000002F52915A614D0011E72F1000106DAA0
:100E30000023D0EB030063EB020211A608E0D8F810
:100E400000108B0701D50FA602E0490701D50EA6B9
:100E500001251146002408F1240704E000F0BAF847
:100E600030323A55641C50EA0102F7D12B46324623
:100E700021464046BDE8F041FFF7E0BE000000001B
:100E80002D0000002B0000002000000030B40021E5
:100E900000F1240408E002F00705D208303542EAE8
:100EA0004372DB086554491C52EA0305F3D1046818
:100EB000002310A2250707D5A40600D421B1C469D8
:100EC00001230DA2641EC46130BCFFF7B7BE10B58C
:100ED000044621461068FFF77FFE02462046BDE823
:100EE00010400023D2E7D21D22F00701D1E90023F0
:100EF000CCE700000000000030000000F0B40D4618
:100F00000188090502D5214C7C4402E01F4C7C4439
:100F10000E34002100F1240608E002F00F07120948
:100F2000E75D42EA03721B097754491C52EA030742
:100F3000F3D102780023120704D5702D06D009B131
:100F4000022311342246F0BCFFF778BE012310348F
:100F5000F8E770B504460D4621461068FFF73CFEE1
:100F6000024629462046BDE870400023C6E7D21D50
:100F700022F00703D3E90023C0E70368126843F0B7
:100F8000200303600823C3610023B7E700280100A2
:100F900000487047089100200048704708910020E1
:100FA000034640688C46002818BF88423CBF034671
:100FB0004068F8D318681844884207D00CF1030041
:100FC00020F00700001D411A521A0146081D0A6050
:100FD000FFF7A0BD30B5B0F10A024FEA900E71F1F3
:100FE00000034EEA817EB0EB0E0061EB91014FEA07
:100FF000101E4EEA017E10EB0E0041EB11114FEA7C
:10100000102E4EEA016E10EB0E0041EB11214FEA5B
:10101000104E4EEA014E10EB0E0041EB114140180C
:1010200041F100014FEAD00040EA41704FEAD1019E
:1010300010EB80054FEA810444EA907444EB01040C
:101040006D1944EB0404521BA3414FF0000348BF49
:101050000A3200D530BD401C41F1000130BD70475F
:101060002DE9FF4F0C461E464FF0FF378BB0D2E9FB
:101070000001DDF860800A908A46C1F30A5505B97F
:101080003D46002108464FF00000BAF1000F00F481
:10109000400005DA00EB80004FF4400101EA500007
:1010A0004FEA9059B9F1010F00DDB9460A9850EAAC
:1010B0004A000ED044F61050A5F2FF3545432F14D8
:1010C000B8F1000F1ED07542291E1EDDC9F10002C5
:1010D0001CE0B8F1010F4FF0000001D0302103E017
:1010E000F24305E02154401CB042FBDB30460022B5
:1010F000002121540B99C1F80880C1E900200FB0EC
:10110000BDE8F08FBD1B6D1CDEE74A4600DA694280
:1011100006A800F0F7FB06AB93E8070003AB83E8F3
:10112000070050460A9901F07AF88DE80700A0F50B
:1011300000501F3800900398002D0ADD42F21F0175
:101140004A460844002303A90390684601F0E3FAE5
:1011500009E0A0F500504A461F38002303A9039078
:10116000684601F0EDFA8DE807000004000C03D09A
:101170004FF0FF30410800E01046B8F1000F03D0F7
:101180000022009215461EE0751E05D4FFF722FFCF
:10119000303262556D1EF9D5B3460122084302D0A4
:1011A00000227F1C04E02078302801D100227F1E1D
:1011B000002A099784D01DE0112D07DAFFF70AFFF6
:1011C000303262556D1C50EA0102F5D1084302D05D
:1011D0000098C8B10EE00021681E05E0235C625C47
:1011E00063542254401E491C8142F7DBAB46A81BC6
:1011F000401E0990002004F80B000B98099AC0F8D3
:101200000880C0E9002B7AE711264FF0000857E765
:101210002DE9F04F88460446D21D22F0070191B017
:10122000D1E90001CDE90A010FF057FD02460B9804
:10123000C00F01D02D2007E02068810701D52B20A9
:1012400002E0202101EAC000032A099001D0072A08
:1012500005DB03464146204600F014FB0BE12078F5
:10126000800601D5E06900E00620B8F1650F8146EF
:1012700006D0B8F1660F18D0B8F1670F70D131E021
:101280000020B9F1110F009001DB112301E009F1F9
:1012900001030AAA01A90CA8FFF7E2FEDDE90C7020
:1012A000002609F10105834647E001204B460090E6
:1012B0004FF000470AAA01A90CA8FFF7D1FEDDE90B
:1012C0000DB00C995D46002610B909F101000D180A
:1012D000B9EB050003D4C0F1FF3609F10105A5EB18
:1012E00009002BE0B9F1010F01DA4FF001090020EC
:1012F000B9F1110F0090484601DD112300E00346CB
:101300000AAA01A90CA8FFF7ABFEDDE90C704D4657
:1013100000268346207800070AD4AB4500DA5D46F4
:1013200001A8012D04DD411911F8011C302907D055
:101330004F4502DA17F1040F04DA012082460FE06C
:101340006D1EEEE7002F02DCED1B3E4403E0781C2F
:10135000A84200DD7D1CB81B00F1010A4FF00047D8
:101360002078000703D4AA4501DB4FF0FF3A0021A3
:10137000B7F1004F0DF143088DF8431024D002203F
:101380002B23002F01DA7F422D230A21021EA0F118
:10139000010000DC5FB197FBF1FC97FBF1F201FB70
:1013A0001C7C17460CF1300C08F801CDEEE7A8F1D3
:1013B000010003702188090501D5452100E0652160
:1013C000A0F1010800F8011C09980FA9A1EB08077A
:1013D000FF1D00B10120411901EBEA70A1693844F9
:1013E000081A401EA0612078C00602D42046FFF7EC
:1013F000C3FB099828B1D4E901219047206A401C19
:1014000020622078C00622D52046FFF7B5FB1EE0FB
:10141000002E04DBB34502DD01A8805D00E0302032
:10142000D4E901219047206A401C2062761CAAF171
:1014300001005FEA000A0AD100F020FAC0680168E2
:10144000405CD4E901219047206A401C2062281E9C
:10145000A5F10105DCDC07E0D4E9012118F8010B56
:101460009047206A401C2062381EA7F10107F3DC78
:101470002046FFF797FB032011B041E62DE9F04F1E
:1014800004460D46D21D22F0070089B0D0E900972E
:10149000484639460FF021FC0246F80F01D02D23B3
:1014A00007E02068810701D52B2302E0202101EA13
:1014B000C0038DF820300BB1012000E00020032A8A
:1014C000824601D0072A04DB2946204600F0DAF9DB
:1014D0003FE12078800601D40D2500E0E569C7F3DF
:1014E0000A560D2D49DA00214FEA175B08464FF0E6
:1014F0000000002F00F4400007DA00EB80004FF4FA
:10150000400100EBD07001EA60008115012901DD86
:101510004FF0FF3100224FEA850CBCF1180F06D3C3
:101520001346ACF118004FF08052C24003E04FF474
:10153000801323FA0CF30CF10C0CBCF1200F04D334
:10154000ACF1200C09FA0CF001E007FA0CF00029CC
:101550004FF0004801DD18B90FE00ED140450CD323
:1015600019EB02095F4121B9404502D19F4329EAA5
:101570000209BBEB175F00D0761C2088000502D55E
:101580007B48784402E07A487844193808AA302326
:1015900002F80A30037C0AF10101002E0AF1020A66
:1015A00053546A4602DC4FF0300101E04FF0310144
:1015B0004FF001088DF8001002D0A6F2FF3603E0CC
:1015C00059EA470100D06B4E002D02DC2178090753
:1015D00004D54FF002082E218DF80110C4460021D9
:1015E0000BE0C7F303433F01C35C491C6D1E02F8C7
:1015F0000830052908F1010801DA002DF1DC00218D
:101600000CE000EB1973491C1B786D1E082902F8C9
:1016100008304FEA091908F1010801DA002DF0DC61
:1016200021688B0602D516E0A8F10108E04505DD2A
:1016300002EB080313F8013C302BF5D0B8F1000F92
:1016400009DD02EB080313F8013C2E2B03D1090737
:1016500001D4A8F10108002D05DD3E2102F8081093
:101660006D1E08F10108407C002E02F8080008F108
:10167000010804DA2D20764202F8080002E02B204F
:1016800002F808000A214FF47A70864208F1010836
:101690000BDB96FBF0F3303302F8083096FBF0F3E7
:1016A00008F1010800FB136601E0642E0CDB6420E6
:1016B00096FBF0F3303302F8083096FBF0F308F1B4
:1016C000010800FB136601E00A2E06DB96FBF1F031
:1016D000303002F8080008F1010896FBF1F001FB38
:1016E0001060303002F80800A16908F1010808EB29
:1016F000050202EB0A00081AA0612078C00602D495
:101700002046FFF739FA216A08AE01EB0A00206291
:1017100004E0D4E9012116F8010B9047BAF1010A5F
:10172000F7D22078C00602D52046FFF725FA6E468C
:1017300009E016F8010B3E280FD0D4E901219047AB
:10174000206A401C2062B8F10108F2D22046FFF75F
:1017500029FA09B00320BDE8F08F206A28442062EE
:1017600003E0D4E90121302090476D1EEBD3F8E768
:10177000E121010002FCFFFF10B5436913B1AFF393
:10178000008001E0FFF731FA012010BD127800F16E
:1017900024010A7000224A700122EDE711684FF01F
:1017A000FF32E9E710B5436913B1AFF3008001E000
:1017B000FFF7D0FA012010BD128800F124018284C5
:1017C0000022C2840122EDE711684FF0FF32E9E701
:1017D00070B516460C46054600F048F8036893F8C5
:1017E0000101012806D0FF2C0FD8185D68B1012037
:1017F0002C7070BDD3F807013246214603F207135F
:1018000003442846BDE8704018474FF0FF3070BDD4
:1018100010B500F0F7F8BDE8104000F0EEB87047E2
:101820007546FFF7B5FBAE4605006946534620F006
:101830000700854618B020B5FEF7DEFDBDE8204064
:101840004FF000064FF000074FF000084FF0000B7C
:1018500021F00701AC46ACE8C009ACE8C009ACE82F
:10186000C009ACE8C0098D467047000010B500F013
:1018700005F8001D10BD00BF4D1301000048704762
:10188000289100202DE9F0411F46044603260168F7
:10189000072A01F4006004DB08B116A505E016A5CF
:1018A00003E008B115A500E015A521F010002060A7
:1018B000A069C01EA0610FB1401EA0612046FFF7C5
:1018C0005BF94FB1D4E9012138469047206A401CAA
:1018D0002062C01C206206E0206AFAE7D4E90121F8
:1018E00015F8010B9047761EF8D22046FFF75AF9FB
:1018F000BDE8F0814E414E006E616E00494E4600DB
:10190000696E66002DE9F047814616468AB0354873
:1019100078440DC88DE80D0032487844801C03AC33
:101920000DC884E80D0041F69B300844372190FB38
:10193000F1F290FBF1F5A5F1800501FB12041B3CCF
:1019400002D56442012000E00020DFF898A0804624
:101950000027FA44AAF1BE0A0EE0E0070AD0324698
:10196000684607EB470101230AEB810100F0E8FE1E
:101970008DE8070064107F1C002CEED1194F7F44C6
:10198000AE3F19E0E80715D007EB04100DF1180A77
:1019900090E80E008AE80E00C068F04201D1981964
:1019A00008903246012306A903A800F0C9FE03AB44
:1019B00083E807006D10641C002DE3D14FF0010394
:1019C00032466946B8F1000F03A802D000F0A3FE2A
:1019D00001E000F0B5FEC9E90001C9F808200AB02D
:1019E000BDE8F087E41E010010B50446AFF30080A7
:1019F0002046BDE81040FEF78ABC002801D000F068
:101A000029B8704710B5012805D0002103A000F0C7
:101A100027F8012010BD09A1F8E7000053494752FB
:101A2000544D454D3A204F7574206F6620686561AE
:101A300070206D656D6F7279000000003A20486576
:101A40006170206D656D6F727920636F7272757051
:101A50007465640001491820ABBEFEE72600020051
:101A600070B505460C460A2000E06D1C00F011F828
:101A700035B128780028F8D102E0641C00F009F89C
:101A800014B120780028F8D1BDE870400A20AFF3E7
:101A9000008008B569468DF800000320ABBE08BD84
:101AA000F0B581B04FF68311C3F6226111F04CF905
:101AB0004FF07A5111F09CF8044611F0F9F8054600
:101AC00020460021002711F0BFF8002818BF013D73
:101AD000284611F0FBF80146204611F089F94FF035
:101AE000884111F031F9054611F0E9F8044628461D
:101AF0004FF0444111F07CF80646B7EB542F0CBF71
:101B00002E460024204611F0E8F80146304611F038
:101B10006FF905464FF07E50294611F069F943F6FA
:101B2000F827C0F6010757F8241011F00DF9064602
:101B300007EB84004168284611F006F9014630465B
:101B400011F056F801B0F0BD2DE9F04103880F887F
:101B5000BB423FD147884E88B7423BD11688B3423B
:101B600038D15688B74235D1466854684D6807FB6E
:101B700003F80020B0EB980F1BD04FEA98004742C3
:101B80003068296811F034F820607068696811F0D5
:101B90002FF86060B068A96811F02AF8A060F068BA
:101BA000E96811F025F8E06010341035103601377F
:101BB000E6D118F003000BD0474200BF56F8040BE3
:101BC00055F8041B11F014F844F8040B0137F5D153
:101BD000002000E0FD2040B2BDE8F081436042807B
:101BE000018070472DE9F04F93B0B0F802A0B0F833
:101BF00000B0D34540F05D810A88FD25934540F053
:101C000059814B889A4240F055814768BBF1000FDB
:101C100000F039814C686FF00300019700274FF006
:101C20007E585E46CDF820A000EB8B092046049438
:101C3000BBEB060008D0B9002046FEF7ADFE002041
:101C4000013004348742FBD104F1040A751EC4F844
:101C500000800FD0A9EB87015046FEF79DFE0120C2
:101C6000544600BF013004348642FBD10137002DB9
:101C70002E46DDD1019FDDF820A0BBF1000F00F062
:101C80000281042007EB8A023C1DABF10108002110
:101C9000CDF824A0CDF81CB000EB8A000290CAF168
:101CA00000000B904FEA8A00129000BF594580F067
:101CB000058101FB0AF010910499059700259346D0
:101CC0000392CDF8188057F8209001EB800107EBC4
:101CD00080004F460E910D9008E000BF1298DBF88F
:101CE0000070A8F101083546584483463846002163
:101CF00010F0A3FF40B93846294610F090FF0028A5
:101D00003E4608D008E000BF87F00046284631462E
:101D100010F09AFF00B92E46B8F1000FDED1304620
:101D2000002110F06EFF002840F0C88029F000402C
:101D3000314610F066FFDDE9062140B91098C04336
:101D4000401804D0002000BF01308242FCD1484638
:101D5000002110F056FF099E002840F0AF800D9939
:101D60004FF07E500F9408601098AAEB00010129F3
:101D700008460C910BD00F9D012400BF28684946EE
:101D800010F075FF013445F8040BA642F6D10B9C08
:101D90000E9D00BF2868494610F069FF45F8040B06
:101DA0000134F7D10C98DDF81C804FF0000B01389E
:101DB0000A90DDE90465DDE90F4100BF8B4505D1DF
:101DC0000C9806EB8A0605EB80053CE00D98D5F8EB
:101DD00000900168484610F0B7FF0146484611F0F0
:101DE00007F845F8040B0A98E0B1CDF84480DDF817
:101DF000248001274FF0000A54F80A10484610F0DA
:101E0000A3FF014655F80A0010F0F2FF013745F82C
:101E10000A000AF1040AB845EED15544DDF820A0C5
:101E2000DDF844800B9F0E9C54F8041B484610F0CC
:101E30008BFF0146306810F0DBFF46F8040B0137DA
:101E4000F2D1DDE90F4105EB81050BF1010BB8F192
:101E50000108B3D10298039ADDF81880059FDDF8D8
:101E60001CB00131044402440998A8F10108043768
:101E7000013809907FF41AAF48460021002510F080
:101E8000C0FE019FB0B10AFB0BF50024002645B14E
:101E90003868002110F0B5FE18B101360437AE42A3
:101EA000F6D3AE4208BF6FF00404204613B0BDE87D
:101EB000F08FFD2568B213B0BDE8F08FFB25F9E780
:101EC0002DE9F04F91B047880B889F4240F0AF80DA
:101ED000068813889E4240F0AA804D8853889D4210
:101EE00040F0A58052684FF0000949684FEA850824
:101EF00005960497039502924268A9EB9700019119
:101F0000079027F0030002EB80000C920990B808BC
:101F10000B90684301EB00102946009007F0030086
:101F20000A904042069000BF029800EB890ADDE962
:101F3000000BCDF8209010900B980F91002847D0FF
:101F4000CDF838A0CDF834B0D946DDF81CA0DDF8C6
:101F500030B000249BE8C100D9F80010DBF80C5029
:101F600010F0F2FE0146204610F042FE59F808102B
:101F70000446304610F0E8FE0146204610F038FED8
:101F800009EB08060446384656F8081010F0DCFE47
:101F90000146204610F02CFE46440446284656F8DA
:101FA000081010F0D1FE0146204610F021FE044634
:101FB00006EB08000BF1100B1AF1010A00EB0809FF
:101FC000C8D1109DDDE90896DDE90DBA03E000BF38
:101FD0000C9E00245D460A9868B1069F56F8040BD3
:101FE000296810F0B1FE0146204610F001FE0446BB
:101FF00045440137F2D110980F994AF8044B0BF180
:10200000040B04300139109096D10498099901EB22
:10201000800109910C9901EB800105980C910399BD
:102020000138894405907FF47FAF002000E0FD2057
:1020300040B211B0BDE8F08F2DE9F04103880F8860
:10204000BB423FD147884E88B7423BD11688B34246
:1020500038D15688B74235D1466854684D6807FB79
:1020600003F80020B0EB980F1BD04FEA98004742CE
:102070003068296810F0BCFE20607068696810F054
:10208000B7FE6060B068A96810F0B2FEA060F068AA
:10209000E96810F0ADFEE0601034103510360137FD
:1020A000E6D118F003000BD0474200BF56F8040BEE
:1020B00055F8041B10F09CFE44F8040B0137F5D1D1
:1020C000002000E0FD2040B2BDE8F0812DE9F04F96
:1020D00082B0B0F800E04B889E454BD144880B8815
:1020E0009C4247D100234E6804F0030B40684FEA3E
:1020F0000E184FEA940AA3EB9401CBF10009019169
:102100004FEA8E0132460096BAF1000F1CD0019FB3
:10211000344600BF2546046801372C6044686C5083
:1021200005EB0104D0F808C044F801C00C44C268B3
:1021300000F11000625004EB010202EB0104E9D14E
:1021400005EB080703E000BF009A02EB8307BBF131
:10215000000F07D04D4600BF50F8042B01353A6000
:102160000F44F9D10436BEF1010E03F10103CBD1C6
:10217000002000E0FD2040B202B0BDE8F08FF0B5D5
:1021800081B04FF68311C3F6226110F0DDFD0446E5
:1021900010F08EFD054620460021002710F054FD6A
:1021A000002818BF013D284610F090FD014620464A
:1021B00010F01EFE4FF0884110F0C6FD054610F0ED
:1021C0007EFD044628464FF0444110F011FD0646BE
:1021D000B7EB542F0CBF2E460024204610F07DFD97
:1021E0000146304610F004FE05464FF07E50294669
:1021F00010F0FEFD43F6F827C0F6010757F824104B
:1022000010F0A2FD064607EB84004168284610F056
:102210009BFD0146304610F0EBFC01B0F0BD5FEADB
:10222000400C08BF91F0000F4FEA8C234FEAC12207
:1022300043EA51514FEA1C5018BF00F5F0404FEAF5
:10224000300018BF41F000415FEA6C5C00F029806B
:10225000BCF1FF3F08BF40F080407047130C06BF41
:1022600012044FF0100C4FF0000C130E04BF1202BA
:102270000CF1080C130F04BF12010CF1040C930FA6
:1022800004BF92000CF1020CD30F04BF52000CF1FA
:10229000010C11464FF00002A0F11F00A0EB0C0052
:1022A000704711F0004F08BF704731F000413FF414
:1022B000D5AF0B0C06BF09044FF0100C4FF0000C0B
:1022C0000B0E04BF09020CF1080C0B0F04BF09012F
:1022D0000CF1040C8B0F04BF89000CF1020CCB0F26
:1022E00004BF49000CF1010CCCF12003A0EB0C0061
:1022F00022FA03F302FA0CF241EA030100F10100B1
:10230000704720F07F4C80EA030023F07F47ACEB5E
:10231000070303F57C5300F0004003F1FF032DE9B0
:1023200080494FEA154B09B44FEA144325EA0B4E96
:1023300024EA03480FF2042606EB132749083E78E7
:102340005FEA320203FB0667C7F5000707FB06F6E4
:102350004FEA54374FEAD64606F1020607FB066CF1
:10236000CCF1005C4FEA1C472CEA074C07FB06F453
:102370000CFB06F504EB15464FEA961634BF002019
:102380004FF000404FEAD13706FB07FC4FEA1C4CE8
:102390000CFB0BF7D21B03FB0CF761EB07010CFBEB
:1023A0000EF7B0EB074072EB17420CFB08F734BF97
:1023B000A2EB0742B2EB074261EB17414FEA0C4434
:1023C0004FEA910706FB07FC4FEA1C4C0CFB0BF78E
:1023D000B0EBC74072EB573203FB0CF734BFA2EBF4
:1023E000C742B2EBC74261EB57310CFB0EF7B0EBC3
:1023F000C70072EB57720CFB08F734BFA2EBC702A1
:10240000B2EBC70261EB5771039F4FEA816141EA6A
:10241000921104EBCC044FEAD1374FEA826206FBFB
:1024200007FC42EA90124FEA80604FEA1C4C0CFB1A
:102430000BF7D21B03FB0CF761EB07010CFB0EF74C
:10244000B0EB074072EB17420CFB08F734BFA2EB6E
:102450000742B2EB074261EB17414FEA8C554FEA56
:10246000910704EB9C2406FB07FC4FEA1C4C0CFB79
:102470000BF7B0EBC74072EB573203FB0CF734BFDE
:10248000A2EBC742B2EBC74261EB57310CFB0EF730
:10249000B0EBC70072EB57720CFB08F734BFA2EB2E
:1024A000C702B2EBC70261EB577115EB4C254FEA3F
:1024B000816141EA92114FEA82624FEAD13742EAE2
:1024C000901206FB07FC44F100044FEA80604FEADB
:1024D0001C4C0CFB0BF7D21B03FB0CF761EB070149
:1024E0000CFB0EF7B0EB074072EB17420CFB08F742
:1024F00034BFA2EB0742B2EB074261EB174115EB89
:102500001C154FEA813141EA92414FEA823242EA98
:1025100090424FEA80304FEA0C7644F1000448EADA
:1025200003434EEA0B484FF0000EB2EB080C71EB80
:10253000030724BF624639464EEB0E0E4FF0000BE8
:102540000018524149414BEB0B0BB2EB080C71EBFD
:1025500003077BF1000B24BF624639464EEB0E0E9B
:102560004FF0000B0018524149414BEB0B0BB2EB03
:10257000080C71EB03077BF1000B24BF6246394660
:102580004EEB0E0E51EA020718BF46F0010616EB9D
:102590000E7655F1000254F1000103D5BDE8890122
:1025A000BDE80088BDE88901BDE80048B619524180
:1025B00041EB0101A3F10103704780807F7E7D7CA8
:1025C0007B7A7978777676757473727171706F6EC5
:1025D0006E6D6C6C6B6A6A69686867666665646470
:1025E000636362616160605F5F5E5E5D5D5C5C5BFA
:1025F0005B5A5A5959585857575656555555545469
:10260000535352525251515050504F4F4F4E4E4DC6
:102610004D4D4C4C4C4B4B4B4A4A4A494949484812
:102620004847474747464646454545444444444352
:1026300043434342424242414141002B9C4630D4F5
:1026400077002BD01CB54FEA370703B44FF01000CA
:102650004FF01001BAF1000F06D0BCF1000FDCBF43
:1026600040F0080040F008014FF000000FBCBDE84A
:1026700010400BF1010BBBF1010F08BF5FEA170718
:1026800022BF12F1010211F101014FF0004143F1AB
:10269000000300F0004043EA00007047F9D35708F8
:1026A000D0E746EA064613F1400F4FEA16461FDD13
:1026B00013F1200FDFBF16430A46002120335B428F
:1026C000BED0C3F1200746EA064602FA07F74FEAF2
:1026D000164646EA0706C3F1200722FA03F201FA7A
:1026E00007F721FA03F14FF0000342EA0702A7E7D8
:1026F00046EA020646EA06464FEA164646EA01065A
:10270000BCBF46EA0646360C4FF000034FF000020D
:102710004FF0000194E72DE9804C9A46934670B43F
:1027200091E8380007C831EA400C48BF34EA430C4E
:1027300003D5FFF7E6FDFFF780FFF0BCBDE8008C96
:102740002DE9804C9A46934670B491E8380007C84A
:1027500010F0804F08BF13F0804F03D100F005F850
:10276000FFF76BFFF0BCBDE8008C20F07F4780EAEC
:10277000030023F07F4C07EB0C03A3F57C5300F020
:102780000040A3F1FE0392F0000F00F0B38095F03B
:10279000000F00F077802DE901494FEA11404FEA20
:1027A000144621EA004800FB06FC24EA064708FB21
:1027B00006F607FB08F800FB07F718EB06484CEB9A
:1027C000164C4FEA124B18EB07484FEA15464CEBF4
:1027D000174022EA0B4E0BFB06FC25EA06470EFBD0
:1027E00006F607FB0EFE0BFB07F71EEB064E4CEB47
:1027F000164C4FF000061EEB074E4CEB174B18EB38
:102800000B0840F1000018EB0E0B58EB000840F1EC
:1028100000008F1A4FF000013CBFC943661B14BF74
:10282000B5EB040C00213CBFC943F61B4FEA17442B
:102830004EEA8E0E27EA04454FEA1C4704FB076266
:102840002CEA074C05FB07F70CFB05F604FB0CFC18
:1028500016EB074642EB174216EB0C4642EB1C42C6
:102860001BEB060658EB0202414146EA9E0601D5E3
:10287000BDE80189B619524141EB0101A3F1010301
:10288000BDE801894FEA14454FEA114724EA05469D
:1028900021EA074C05FB07F406FB07F70CFB06F1E2
:1028A00005FB0CFC11EB074144EB17444FEA1247C0
:1028B00011EB0C4144EB1C4422EA074C05FB07F2E8
:1028C00006FB07F70CFB06F605FB0CFC16EB0746B0
:1028D00042EB174216EB0C4642EB1C456A1854F1CA
:1028E000000148BF7047B619524141EB0101A3F105
:1028F0000103704795F0000F37D04FEA11424FEABD
:10290000144721EA024624EA074C02FB07F106FBC2
:1029100007F70CFB06F402FB0CFC14EB074441EB3D
:1029200017414FEA154714EB0C4441EB1C4125EAD3
:10293000074C02FB07F506FB07F70CFB06F602FB4C
:102940000CFC16EB074645EB174516EB0C4645EB22
:102950001C42121951F1000148BF7047B61952418B
:1029600041EB0101A3F1010370474FEA14454FEA1F
:10297000114724EA054621EA074C05FB07F106FB4F
:1029800007F70CFB06F24FF0000605FB0CFC12EB00
:10299000074241EB174112EB0C4251EB1C4148BF7F
:1029A0007047921841EB0101A3F101037047000049
:1029B000464910B54A6822F440324A604A68436882
:1029C0001A434A6001684A6822F480724A600168CA
:1029D0004A68036942EA03224A6001684A6822F0B1
:1029E00040724A6001684A6883681A434A60016815
:1029F0008A6822F400628A6001688A68C3681A43A0
:102A00008A60816A6FF07062D14201688A6822F040
:102A100070628A6001688A680CD0836A1A438A608F
:102A200001688A6822F040528A6001688A68C36A35
:102A30001A4301E022F040528A6001688A6822F05D
:102A400002028A6001688A68037E42EA43028A6061
:102A500090F82010002901684A680FD042F4006203
:102A60004A6001684A6822F460424A6001684A6824
:102A7000174C436A04EB43331A4301E022F400622B
:102A80004A600168CA6A22F47002CA620168CA6AAE
:102A9000838B104C04EB03531A43CA6201688A68A3
:102AA00022F400728A6001688A6890F8303042EA45
:102AB00043228A6001688A6822F480628A60016821
:102AC0008A68406942EA8020886010BD0023014086
:102AD00000E0FFFF0000F0FF30B50C4605000CD011
:102AE000022C0AD90548A11E0288284601F020FDC3
:102AF000291901F8020D000A487030BD7C0500203C
:102B000070B50D461649174C08600020A0700EF0F5
:102B1000BFFDA1780843A0700EF08EFEA178084397
:102B2000A0701DB1104800F059FC16E00E489FED52
:102B30000F0A80ED090A9FED0E0A80ED0A0A80ED6A
:102B40000B0A9FED0C0A80ED0C0A9FED0B0A80ED3D
:102B5000080A9FED0A0A80ED060AA07870BD000001
:102B6000EC040020A40400201C840020AC38223B8C
:102B7000B016CE393F161B41C48B813F0000204266
:102B800001221021014802F05BBE0000000002405B
:102B900000221021014802F053BE00000000024054
:102BA00001221146014802F04BBE00000004024021
:102BB00000220121014802F043BE0000000402404F
:102BC00070B50546FFF7E4FF922000F0EDF806220D
:102BD0006549122000F0CAF8FFF7D2FF624CA4F159
:102BE0001C0660782178000200B2084300EE100A4B
:102BF000D6ED030AB8EEC00A60EE200A95ED080A89
:102C000060EE800AC5ED000AE078A178000200B20B
:102C1000084300EE900A96ED031AF8EEE00A60EE23
:102C2000810A60EE800AC5ED010A6079217900020F
:102C300000B2084300EE900A3081F8EEE00A60EE40
:102C4000810A20EE800A85ED020AFFF7B1FF082213
:102C50002146002000F08AF8FFF7A2FF20780F2815
:102C60005AD1F078A1780028E0784FEA002000B22D
:102C700040EA01002BD000EE100AD5ED090AB8EEAB
:102C8000C01A96ED040A51EE000AC5ED030A6079F8
:102C90002179000200B2084300EE900A95ED0A1A6D
:102CA000F8EEE00A10EE801A85ED041AE079A179B9
:102CB000000200B2084300EE900A308195ED0B1A35
:102CC000F8EEE00A10EE801A85ED051A24E000EE19
:102CD000100AF8EEC00A96ED040A60EE800AC5ED0F
:102CE000030A60792179000200B2084300EE900ADD
:102CF000F8EEE00A60EE800AC5ED040AE079A179F9
:102D0000000200B2084300EE900A3081F8EEE00ABB
:102D100020EE800A85ED050AFFF73AFFA22000F0B9
:102D200043F802221049222000F020F8FFF728FF84
:102D300020786178C00040EA51103081B0F5806F92
:102D400002DBA0F500603081B6F90800B4EE001A8D
:102D500000EE100AF8EEC00AB3EE070A00EE810A90
:102D600085ED070A70BD0000C004002070B5144650
:102D70000D4640F0800000F017F806E0552000F006
:102D800013F8641E05F8010BE4B2002CF6D170BDF7
:102D900010B50C4640F0800000F006F8552000F019
:102DA00003F8207010BD000001B582B04FF47A70B6
:102DB00000900548012301AA02A9006804F036FC2E
:102DC0009DF804000EBD0000EC04002010B50C4678
:102DD000FFF7EAFF2046BDE81040FFF7E5BF10B55A
:102DE000A82001F0F7F8BDE81040AFF300800AF02A
:102DF000B8BAB6EE000AD2ED020AF0EE401A92ED31
:102E0000031A40EEE01A90ED002AD2ED012AD0ED2F
:102E1000013A22EEA03A41EE411A21EE822AD2ED89
:102E2000001A01EEC13A22EE811A01EEA01A03EE59
:102E3000232AD0ED020AF0EE001A01EE202A62EEFB
:102E4000210AC1ED000A92ED011AD2ED023A92ED8B
:102E5000002AD2ED030A61EE232A90ED003A90EDAC
:102E6000014A42EE202A62EE832AB0EE403A01EE99
:102E7000413A00EEE03A63EEA00A42EE410A43EE28
:102E8000042A90ED021A40EE812A62EEA10AC1EDF9
:102E9000010A92ED011AD2ED032AD2ED020A92ED57
:102EA000003A21EE222A60EEA22AD0ED003A01EE8D
:102EB000410A03EE602A43EE012A90ED013A00EE4A
:102EC000E00A22EE232AD0ED020A02EE832A00EE67
:102ED000202A22EE210A81ED020A7047FEE7000057
:102EE00000B587B0182205496846FDF7F9FC684629
:102EF00009F07AFE0249086007B000BD58320108A7
:102F0000C00200202DE9F041214F234C00262DED79
:102F1000028B9FED208A00BF57F82650687904285D
:102F200014D8A87968B195ED000A206809F0C6FEAA
:102F3000287907280DD2DFE800F0101316191C1F9E
:102F40002200B0EE480A206809F0B8FE761C052E73
:102F5000E2D3BDEC028BBDE8F0819FED100A10E0DA
:102F60009FED0F0A0DE09FED0F0A0AE09FED0E0A9C
:102F700007E09FED0E0A04E09FED0D0A01E09FEDD2
:102F80000D0A2068BDEC028BBDE8F04109F0C6BE19
:102F90008C7E002000000000C00200209D9DFA3AB7
:102FA000934ADF3A32E5C63A41C8BB3A052FA73A01
:102FB00009F2943AFAA9843A014801F0F0BD000000
:102FC000180A0020014801F0EABD0000180A00209C
:102FD000014801F0E4BD0000400A0020014801F072
:102FE000DEBD0000400A002010B58AB00123002198
:102FF000CDE90631017F0E4C41F30001491C0491DB
:103000000E210991416B0B4A490101910168A142CE
:1030100003D111784C1C147002E051784C1C547090
:10302000059108930068694601F090FC0AB010BD54
:10303000180A00205C0200202DE9FC471C4E89463E
:103040000746A6F14005DFF86C802AE06B46184A77
:103050004946384601F013FD002498F80210326802
:103060001DE000BF55F824000368BB4216D1436B36
:103070009A4213D1D0F8391000290DD0326980F866
:10308000382055F8240069462C30FDF7E4FB55F84C
:103090002400D0F839108847BDE8FC87641C8C42B6
:1030A000E0D34946384601F0D9FC0028CED1F3E7F9
:1030B000FC7D00205C020020FEB5384E0446B0784E
:1030C000E8B9374801F08EFF0221354801F0CEFB08
:1030D0001021334801F0CAFB324801F083FF02217E
:1030E000304801F0C3FB10212E4801F0BFFB2EA099
:1030F00000902FA32FA231A100200AF07FF9B17810
:10310000102908D328A0009036A337A23849002000
:103110000AF074F9F6E70020364F18E057F820203F
:10312000A568536BAB4211D1126823689A420DD146
:1031300004F10805241D1CA00094CDE9015029A329
:1031400029A22D4900200AF059F9F4E7401C8842D1
:10315000E4D34120FDF762F905464121FDF7FAFB72
:10316000616869600021E96029610821696121685D
:1031700029606168E961A1686963E168C5F839108F
:103180002169C5F83D102846FFF72EFFB178284683
:1031900047F82150491CB170FEBD00005C020020C0
:1031A000180A0020400A00201B5B306D0000000060
:1031B000493A00001B5B313B33326D002020257300
:1031C00025735B6273705F63616E5D2043414E20C7
:1031D0005365727669636520496E69740D0A2573BB
:1031E00000000000453A00001B5B313B33316D00AD
:1031F00038390108BC7D0020EC38010830B505469F
:103200002DED028B83B0F0EE408A00F0A3FEB0EE0D
:10321000408A1D4C11E000BF00F09CFE30EE480AD1
:10322000B4EEE80AF1EE10FA07DD18A16068CDE906
:10323000000118A318A21A4919E0286801F099FCA6
:103240000028E9D000F086FE30EE480A05F12003A0
:103250001A1D84ED020A2868291D01F019FB88B1A6
:103260000AA16068CDE900010AA30BA20DA100200C
:103270000AF0C4F86068401C6060002003B0BDEC38
:10328000028B30BD0120F9E75C0200201B5B306D32
:1032900000000000573A00001B5B313B33336D00E8
:1032A0009C3801082020257325735B6273705F636F
:1032B000616E5D2043414E2062757320425553215B
:1032C00020636E743A25640D0A257300024AC2E930
:1032D000000102487047000060000020841D0020AB
:1032E000002070470020704710B5002204490548AF
:1032F0000BF0ECFE044903480BF0DBFE002010BD90
:1033000084250020A4110020841D002010B50C4647
:10331000014607480BF0CDFE05480BF0A3FE05481B
:10332000416811B1208880B28847002010BD00009C
:10333000A411002060000020044810B5026812B1FA
:10334000088880B29047002010BD00006000002077
:10335000094A10B5D2F8BC22D2F814220AB10120D1
:1033600010BD0A46014604480BF0B0FEBDE810400F
:1033700001480BF025BF0000A41100201248134A99
:10338000DFED130A008D00EE100A0F48B8EE400A78
:10339000223810EE101A914203DD00BF30EE600AB1
:1033A0000EE010EE101A914204DC10EE101A094AD9
:1033B0009142F3D930EE600ADFED070A30EE200AC1
:1033C00010EE101AC1607047467D00201145EE4294
:1033D0001145EE42DE7573C20000B4432DE9F04F93
:1033E00004462DED048B89B000200190DFEDF89AA2
:1033F0000290F0EE698AB0EE689A00F0C9FDF54DD2
:10340000DFF8D4B3DFF8D49385ED050A03AE0DF1F0
:1034100018084FF07C5A00BF00F0BAFDD5ED050A40
:1034200030EE600A10EE101A59451ADD9FEDEC0AD5
:1034300084ED090A9FEDEB0A84ED0A0A84ED0B0A7C
:103440009FEDE90A84ED0C0A9FEDE80AE8A084EDFF
:10345000060A0090E8A3E9A2EAA1002009F0CEFF45
:10346000A8E19FEDF60A00F039FDC4ED0C9AC4ED19
:10347000099AC4ED0A9AC4ED0B9A00271BE100BF1C
:10348000FFF786FB9220FFF78FFC062201A912208E
:10349000FFF76CFCFFF774FB9DF805009DF8041026
:1034A000000200B2084300EE100AF8EEC00A95EDE3
:1034B000030A60EE801AC4ED001A9DF807009DF81B
:1034C0000610000200B2084300EE100AF8EEC00A2F
:1034D00095ED030A20EE801A84ED011A9DF809008B
:1034E0009DF80810000200B2084300EE900AF8EEC2
:1034F000E00A60EE800A21EEA10AC4ED020A01EEA4
:10350000010A00EEA00A0DF0DDFFB0EE408A94ED56
:103510000C0A30EE080A84ED0C0AFFF749FB08227A
:1035200001A90020FFF722FCFFF73AFB9DF80400F9
:103530000F2840D19DF807009DF80610000200B248
:10354000084300EE100AD5ED040AB8EEC00A20EEDA
:10355000200A84ED030A94ED091A31EE000A84ED85
:10356000090A9DF809009DF80810000200B20843FE
:1035700000EE100AB8EEC00A20EE200A84ED040A1C
:1035800094ED0A1A31EE000A84ED0A0A9DF80B0048
:103590009DF80A10000200B2084300EE100AB8EECF
:1035A000C00A20EE200A84ED050AD4ED0B0A30EEA5
:1035B000800A84ED0B0A002F60D0B4EEC98AF1EEC8
:1035C00010FA01DDB0EE489AB4EEE88AF1EE10FA96
:1035D00001D2F0EE488A00204FEA080104EB800295
:1035E00092ED030A06EB8002D2ED000AB4EEE00A87
:1035F000F1EE10FA01DD82ED000A01EB8002D2ED5E
:10360000000AB4EEE00AF1EE10FA01D282ED000AEF
:10361000401CC0B20328E1D379EE680A0A460020B4
:10362000C5ED060A4FEA090106EB800393ED001A87
:1036300002EB800393ED000A01EB8003401C31EEA6
:10364000400AC0B2032883ED000AEDD310EE900AC1
:1036500050450ADC7A480A68824206DC4A6882429F
:1036600003DCD9F8081081421FDD61A0009075A32A
:1036700075A277A1002009F0C1FE20E0B0EE489AC3
:10368000F0EE488A0020414604EB800292ED030AE6
:1036900006EB800282ED000A01EB8002401CC0B202
:1036A00082ED000A0328EFD3B6E79FED750A00F01C
:1036B00015FC7F1CBFB2E8888742FFF4E1AEE988C1
:1036C000D4ED0C0A00EE101A2F460020B8EE400A86
:1036D00080EE801A84ED0C1A00EE101A04EB8002C2
:1036E000401CB8EE400AD2ED090AC0B2032880EEB1
:1036F000801A82ED091AEFD3FFF74AFAA220FFF7EA
:1037000053FB022201A92220FFF730FBFFF738FA12
:103710009DF804009DF80510C00040EA5110B0F576
:10372000806F01DBA0F5006000EE100AB4EE001A15
:10373000F3EE070AB8EEC00A40EE010AC4ED060A2D
:10374000B888401CB880B8695746B8423FF764AEA5
:1037500094ED0C0ADFED4B0A30EE600A0EF039FAF8
:1037600010EE100AB842F1DC3548D9F8002049467D
:103770008242EBDC4A688242E8DCD9F808108142D8
:10378000E4DC94ED090A0EF024FA10EE100A3E4F24
:10379000B842DBDC94ED0A0A0EF01BFA10EE100AB8
:1037A000B842D3DC94ED0B0A0EF013FA10EE100AB7
:1037B000B842CBDC94ED0C0ADFED340A80EE801ABF
:1037C00084ED081A09B0BDEC048BBDE8F08F000051
:1037D00000000000A40400200000404110840020EC
:1037E000AC38223BB016CE393F161B4100002042B8
:1037F0001B5B306D00000000453A00001B5B313B55
:1038000033316D002020257325735B424D493038DC
:10381000385D2043616C696272617465204661693C
:103820006C65642120557365206F66666C696E65F2
:1038300020706172616D730D0A2573000AD7A33B76
:103840009A99193E573A00001B5B313B33336D00A8
:103850002020257325735B626D693038385D2063E5
:10386000616C6962726174696F6E2077617320693F
:103870006E7465727275707465640A0D0A25730042
:103880006F12033ACDCC1C410AD7233CC3F51C412F
:1038900030B5B1B0B02220496846FDF721F80125C6
:1038A00028958DF89650684600F0CEF91B4CE061E3
:1038B000022028908DF89650684600F0C5F92062E5
:1038C000042028908DF89650684600F0BDF960629B
:1038D000032028908DF89650684600F0B5F9A06254
:1038E0000F4910480BF036F90B4960611422B031D2
:1038F0002CA8FCF7F5FF2CA80AF05CFAA0611521B2
:1039000009A00AF039FA206103210AA009F04EFA51
:10391000E06031B030BD0000D42E0108B8010020B5
:10392000117D00207C0F0020636861737369735FF1
:10393000636D6400636861737369735F6665656472
:103940000000000070B5494C47492DED028B2069FD
:103950000AF0FEF9444D287C0028E06912D000F0FE
:103960006FF9206A00F06CF9606A00F069F9A06AEA
:1039700000F066F9287C012873D002280ED00328B5
:1039800025D10DE000F003FA206A00F000FA606A29
:1039900000F0FDF9A06A00F0FAF9EBE7002015E06D
:1039A000E868FFEE080A00EE100A60EE200A00EE5A
:1039B000100AB5EEC00AF1EE10FA00EE100A01DCB2
:1039C000B1EE400A20EE800A10EE100AA860E86806
:1039D0009FED278A00EE100A20EE080AFEF760F835
:1039E00084ED020AE86800EE100A20EE080AFEF7ED
:1039F000C6FB84ED010A286894ED021A00EE900AD5
:103A0000696860EE811A00EE901A40EEC01A00EE6E
:103A1000900A60EE800A00EE101AC4ED0B1A40EE18
:103A2000010AC4ED0C0A08F03BF894ED0D0AE069B8
:103A300000F0AAF994ED0E0A206A00F0A5F994EDC1
:103A40000F0A606A00F0A0F994ED100AA06A00F075
:103A50009BF9E0680549BDEC028BBDE8704009F0B8
:103A600081B90448B2E70000FC7C0020B8010020C6
:103A700035FA8E3C00007A4590ED010AD1ED020A3C
:103A800091ED011A20EE200AD0ED020A00EEC10AE3
:103A900082ED000A90ED020AD1ED000A91ED021AC2
:103AA00020EE200AD0ED000A00EEC10A82ED010AE4
:103AB00090ED000AD1ED010A91ED001A20EE200AE6
:103AC000D0ED010A00EEC10A82ED020A7047000043
:103AD00008B504290AD002290AD006A0009007A33D
:103AE00007A20949002009F089FC08BD027708BD3A
:103AF000427708BD1B5B306D00000000453A0000B6
:103B00001B5B313B33316D009C3A01082DE9F047D6
:103B1000DFF824810027A8F1070977E0474850F82B
:103B2000276006F11804B07ED6ED660A06F120057E
:103B3000012801D1F1EE600A607840070ED52078A7
:103B400004280BD1207901283DD096ED040A00BF4E
:103B500005F5807008F04AFFF0EE400A60788007B3
:103B600016D5207810F0060F12D0A079800704D562
:103B7000A86890ED000A70EE200A6079012826D02E
:103B800096ED020A05F1880008F030FFF0EE400AD9
:103B9000A079C00704D0E86890ED000A70EE200A12
:103BA0006078C0070BD0B6F90C0000EE100A05F1E2
:103BB0001000B8EEC00A08F019FFF0EE400AE078F5
:103BC000012808D009E0286890ED000AC0E768687D
:103BD00090ED000AD6E7F1EE600A96F8A421BDEE5A
:103BE000E00A96F8A51102EB821410EE100A04EB1D
:103BF000080202EB4101030A81F8243081F8250014
:103C000096F8A70108B9002088847F1C99F8000065
:103C1000874283D3084E0024B61F4546305D30B13D
:103C200004EB84102844B7EE000AFFF7E7FA641C9F
:103C3000062CF3D3BDE8F087D7050020F08B0020D9
:103C4000012180F8A7117047FEB505464FF4DC76D8
:103C50003046FCF7E3FB04463146FCF79DFE95F841
:103C60009B0084F8A601D5F89400A061B5F89800EF
:103C7000A08395F89A00A07705F1100104F13000B7
:103C800008F0A0FF05F13C0104F1A80008F09AFF3C
:103C900005F1680104F5907008F094FF286820622F
:103CA00068686062E868E062A86805F19C01A0624B
:103CB0000E46204607F02EFF0E48C5E92A0430467E
:103CC000FFF7FAF90C49C4F8A001D1E900018DE829
:103CD0001300684600F0E8F9C4F8A801012084F850
:103CE000A7010748054A017842F82140491C0170A4
:103CF0002046FEBD3141000894360108F08B0020BB
:103D0000D00500200EB5D0F8A011094A08689042ED
:103D100001D1012000E0022006A2C9698DE8070058
:103D200006A307A208A1002009F068FB0EBD000051
:103D3000180A00201B5B306D00000000573A00009D
:103D40001B5B313B33336D002020257325735B648F
:103D50006A695F6D6F746F725D204D6F746F722052
:103D60006C6F73742C2063616E20627573205B2509
:103D7000645D202C206964205B25645D0D0A257339
:103D8000000000000176704780ED660A7047002150
:103D900080F8A71170470000014801F045BA000003
:103DA00084100020014801F03FBA0000240B0020DD
:103DB000014801F039BA0000840B0020014801F0ED
:103DC00033BA0000C40C0020014801F02DBA0000F5
:103DD000E4100020014801F027BA0000240D002063
:103DE000014801F021BA000024100020014801F030
:103DF0001BBA000044110020014801F015BA000070
:103E0000C40F002001681823CAB2103AB2FBF3F2C3
:103E1000054B6FF30901032A9B5CC36500D9091D9B
:103E20008165084670470000282E010810B501463C
:103E300000208B698A6A4FF0C07453B1B3F5005FFC
:103E400015D072B1012A0CD0022A0AD0032A09D156
:103E500004E01AB1012A06D0022A03D1C96AC901B5
:103E600000D5012010BDC96AA142FAD010BD002AB8
:103E7000F7D0012AF2D0022AF3D0032AF3D010BDE2
:103E800030B50468256825F48025256004686360E2
:103E90008368402B036803D099600068C26030BD1E
:103EA0009A600068C16030BD0A4808B501780029F1
:103EB0000ED10121017008494A68009243699A4273
:103EC00002D20269521C02614968416100210170FD
:103ED00008BD000068020020001000E00A494868A0
:103EE0000A4AD2ED010A4A68121AF8EE601A01EE87
:103EF000102AB8EE411A60EE211AB4EEE11AF1EE82
:103F000010FAF0D370470000001000E068020020B3
:103F100000B50E492DED028B81B049680091016812
:103F2000009A511A00EE101A0949F8EE400A91ED74
:103F3000010A0260B8EE400A80EE808AFFF7B4FF03
:103F400001B0B0EE480ABDEC028B00BD001000E0ED
:103F50006802002010B500F061F80B489FED0B1AC5
:103F60000268818802EB4203C3EBC212C08801EBF6
:103F7000C20100EE101A00EE900AB8EE400AF8EE08
:103F8000600A00EE810A10BD980200206F12833A89
:103F900010B500F043F80C489FED0C1A818890EDA5
:103FA000000A00EE901AC088B8EE400AF8EE600AE7
:103FB00000EE810A00EE900A9FED051AF8EE600A05
:103FC00000EE810A10BD0000980200206F12833AB3
:103FD000BD3786350D490A6842F080720A600C4987
:103FE00000224A600B6843F001030B6009494FF45B
:103FF0007A734843B0FBF3F30749C1E90103054B6A
:10400000B0FBF3F0C1E90302FFF74EBFFCED00E0A7
:10401000001000E040420F00680200202DE9F84344
:104020001F4840680090FFF73FFF1E4F0024009894
:1040300039694FF0FF322546E1FB0205C7E90E055D
:10404000D7F804800646424623462946FCF715FA6F
:104050004346A0FB03C801FB038107F1300800FBC6
:104060000411B6EB0C06C8F80000D7F8089065EB11
:1040700001054A46002330462946FCF7FEF981B285
:10408000A8F8041001FB09F1701A65EB0401002384
:10409000FA68FCF7F2F9A8F80600BDE8F88300001A
:1040A000001000E06802002010B504461020FCF764
:1040B000B5F90021016041608160C160A168C16003
:1040C000218801B96421018061684160618801B97A
:1040D00064210181054A21880181034B117843F84D
:1040E0002100491C117010BD10830020A004002085
:1040F000018801817047000070B50024094E0A4D07
:104100000CE000BF56F82400018911B1491E01815D
:1041100003E0416809B1C0688847641C287884427C
:10412000F0D370BD10830020A00400207047000071
:1041300070B5D0F83D4000F12C05D4F8A801FFF788
:10414000D7FF04F5D670FFF7E3FE84ED6C0A6088B4
:1041500020802888DFED2B0A40BA00EE100A60802C
:104160009FED2A1AB8EE400A20EE200ADFED260A5B
:1041700084ED010A94ED020A688840BA20EE200A14
:1041800000B200EE900AF8EEE00A00EE810ADFEDE0
:10419000200A9FED201A84ED020AB4F90C0000EE0B
:1041A000100AA888B8EEC00A40BA00B220EE200A71
:1041B00000EE900AF8EEE00A00EE810ABDEEC00AB9
:1041C00010EE100AA081A879A07360882188401A97
:1041D000B0F5805F02DD6069401E04E010F5805F8D
:1041E000606901DA401C60614FF4B471484300EE2D
:1041F000100AD4ED010AB8EEC00A30EE200A84EDB0
:10420000040A70BDACFF333D9899193E3433A34086
:10421000D0CCCC3D6666663F08B50448024A694684
:1042200080680DF00FFD08BD878500203405002053
:1042300090ED000AD1ED000A91ED011A20EE200A5E
:10424000D0ED010A00EE810AD0ED020A91ED021ACA
:1042500000EE810A7047082001F0EEB9102001F04D
:10426000EBB9202001F0E8B9B6EE000AD2ED020A5F
:10427000F0EE401A92ED031A40EEE01A90ED002A9B
:10428000D2ED012AD0ED013A22EEA03A41EE411AD8
:1042900021EE822AD2ED001A01EE813A22EE811A35
:1042A00001EEE01A03EE232AD0ED020AF0EE001A26
:1042B00001EE202A62EE210AC1ED000A92ED011AF8
:1042C000D2ED023A92ED002AD2ED030A61EE232AE2
:1042D00090ED003A90ED014A42EE602A62EE832AA8
:1042E000B0EE403A01EE413A00EEE03A63EEA00A49
:1042F00042EE010A43EE042A90ED021A40EE812AB2
:1043000062EEA10AC1ED010A92ED011AD2ED032A73
:10431000D2ED020A92ED003A21EE222A60EEA22AA4
:10432000D0ED003A01EE410A03EE202A43EE412A85
:1043300090ED013A00EEE00A22EE232AD0ED020AC7
:1043400002EE832A00EE202A22EE210A81ED020AE3
:104350007047000038B5154D154C6869B0F9080074
:10436000B0F5967F01DC687888B9114900203739AB
:1043700068700873153911A308742070E0706070BC
:104380000CA000900EA210A1002009F037F8686977
:10439000C07A012809D16870207006A0009012A38D
:1043A00012A214A1002009F029F838BDFC01002058
:1043B000707D00201B5B306D00000000453A00005E
:1043C0001B5B313B33316D002020257325735B432C
:1043D0004D445D20656D657267656E637920737409
:1043E0006F70210D0A257300493A00001B5B313BB9
:1043F00033326D002020257325735B434D445D20CF
:104400007265696E73746174652C20726F626F746B
:104410002072656164790D0A2573000072B6FEE7AB
:10442000002229B101291AD002291BD04FF4407271
:104430000E490B6823F440730B600B6813430B6049
:104440000A6822F078020A600A68022303EBC000BF
:1044500002430A60086840F48030086070474FF4F7
:104460008072E5E74FF40072E2E70000103C024082
:104470001348016889050FD5016821F400710160B6
:10448000016841F400610160016821F4006101608C
:10449000016841F400710160016849050FD50168A8
:1044A00021F480610160016841F48051016001687C
:1044B00021F480510160016841F48061016070471E
:1044C000003C024001F036B817490868C206174898
:1044D00005D5C26942F01002C26110220A600A6862
:1044E000920605D5C26942F00802C26120220A6024
:1044F0000A68520605D5C26942F00402C261402230
:104500000A600A68120605D5C26942F00202C26159
:1045100080220A600A68920705D5C26942F020022B
:10452000C2610220086070470C3C0240CC2D002084
:1045300010B558B1084C491E0BD310F8013B53403D
:10454000DBB234F8133083EA1222F4E74FF6FF703F
:1045500010BD104610BD00007C34010810B5064C9B
:1045600004E000BF10F8013B5340E25C491E89B2F1
:10457000F8D2104610BD00007C33010830B5D9B028
:1045800005F0B2FE154D0446B02228601449684675
:10459000FCF7A6F904F1240000901C3810490190A2
:1045A000B022B0312CA8FCF79BF904F11C00CDE936
:1045B0002C046846FFF748FB68602CA8FFF744FB13
:1045C000A8602A2107A008F0F1FBE8600D2108A0EF
:1045D00009F0D2FB286159B030BD0000280200204C
:1045E000982F010867696D62616C5F66656564009C
:1045F00067696D62616C5F636D64000070B5284C23
:104600002649206909F0A4FB244D287B20B101280C
:1046100009D002282DD106E06068FFF7B8FBA0683A
:10462000FFF7B5FB25E06068FFF70AFBA068FFF71E
:1046300007FB012204216068FFF74AFA01220221E8
:104640006068FFF745FA01220421A068FFF740FAED
:1046500001220221A068FFF73BFA286800EE100A49
:104660006068FFF791FB686800EE100AA068FFF72A
:104670008BFB0A4828222A382168FCF7ECF860688E
:10468000064990ED010A2A39BCEEC00A10EE100A64
:104690000885E068BDE8704008F064BBA47D002098
:1046A0002802002078B50024009490F83C20012ACC
:1046B00019D0012280F83C200A6807230568092ADE
:1046C00013D9EE680A3A02EB420293409E43EE6031
:1046D0000B788A680A3B03EB43039A400368DD6862
:1046E0002A43DA6010E0022078BD2E6902EB420214
:1046F00093409E432E610B788A6803EB43039A40F4
:1047000003681D692A431A614A681F23072A13D2C6
:1047100005686E6B521E02EB820293409E436E63ED
:104720000B790A885B1E92B203EB83039A400368FD
:104730005D6B2A435A6327E005680D2A12D22E6B5F
:10474000D21F02EB820293409E432E630B790A88AC
:10475000DB1F92B203EB83039A4003681D6B2A436D
:104760001A6311E0EE6A0D3A02EB820293409E4317
:10477000EE620B790A880D3B92B203EB83039A40F9
:104780000368DD6A2A43DA62164B0568144A9D42C3
:1047900006D10D68122D03D1556845F4800555608A
:1047A00005689D4218D10B68102B01D0112B13D135
:1047B000536843F400035360096810290CD10A4977
:1047C0000A4A0968B1FBF2F101EB8101490000E0FE
:1047D000491E00910029FBD180F83C40002078BDA3
:1047E00000230140002001408800002040420F00CB
:1047F00070B504004FF0000503D0206C002610B106
:1048000007E0012070BD204600F01CF8666484F8C3
:104810003C60206CC00610D4206C20F4885040F01E
:10482000020020642046FEF7C3F86664206C20F086
:10483000020040F00100206400E0012584F83C60A3
:10484000284670BD08B500680649884208D1064868
:10485000016841F480710160006800F4807000908C
:1048600008BD0000002001404438024090F820209C
:10487000012A07D0022A05D0416A41F48021416211
:1048800001207047006842690A4342610020704776
:10489000F0B590F820500468A468012D05D0022DD1
:1048A00003D0416A41F480214DE014F0406F01D102
:1048B000E50045D5C4F301640125A5401D608D6860
:1048C0004FF4C0739DB1CE6835434E6845EAC605C6
:1048D000066803EB0417F5514FF4C275076805EB42
:1048E00004150E697E51097D012905D009E00E8865
:1048F000CD6845EA4655EBE701684E5946F48076A7
:104900004E511179D2F805504FF4C67641EA05218F
:10491000056806EB0416A9511178D2F801204FF46E
:10492000C47541EA0221026805EB04155151006883
:1049300003EB0411425842F0010242500020F0BD46
:10494000416A41F4001141620120F0BD10B590F8B8
:104950002020012A07D0022A05D0416A41F4802193
:104960004162012010BD3B48D0F8002242F0010214
:10497000C0F80022D0F8002222F47C52C0F80022B5
:10498000D0F800224B6A42EA0322C0F800220A7DD6
:1049900002F01F0301229A40D0F81C329343C0F862
:1049A0001C32CB69B3B9D0F80C329343C0F80C3247
:1049B0008C894B6864F31F434C6900EBC404C4F852
:1049C00040320C890B6864F31F434C6900EBC4044C
:1049D000C4F84432CB69012B16D1D0F80C32134302
:1049E000C0F80C320C884B6864F31F434C6900EB31
:1049F000C404C4F840320C89CB6864F31F434C698B
:104A000000EBC404C4F844328B69002BD0F80432A4
:104A10000ED01343C0F804320B69002BD0F81432C7
:104A200008D01343C0F81432096A012904D008E001
:104A30009343EFE79343F5E7D0F81C121143C0F816
:104A40001C12D0F8001221F00101C0F80012002061
:104A500010BD0000006400407047000002460020C6
:104A600092F82030012B01D0022B05D1106821B122
:104A7000D0F8100000F003007047C068FAE770B586
:104A800090F82040012C05D0022C03D0416A41F45B
:104A9000802128E0046809B32469A40720D04FF4DA
:104AA000D874056804EB01142D5915F004059560C0
:104AB00005682D591AD0ED08556005682C5904F089
:104AC0000204D4604FF4DA74056804EB01142E5923
:104AD00006F00F06082E0CD308250DE0E468DCE78D
:104AE000416A41F400114162012070BD6D0D1560F5
:104AF000E3E72D5905F00F05156105682D59C5F33C
:104B00000725956105682C59240C54614FF4DC721B
:104B1000046802EB0112A4581C700468A458240A0B
:104B20005C700468A458240C9C700468A258120E8F
:104B3000DA704FF4DE72046802EB0112A4581C71A3
:104B40000468A458240A5C710468A458240C9C715D
:104B50000468A258120EDA71006829B1016941F0A7
:104B600020010161002070BDC16841F02001C160D9
:104B7000F8E70246002092F82010012901D002290E
:104B80000CD111688A68520100D501208A6812018F
:104B900000D5401C8968C90000D5401C70472DE92C
:104BA000F05F0546006800244669D0F804908768E5
:104BB000D0F80CB0D0F810A0D0F81880F10748D089
:104BC000F90714D001218160B80703D5284600F009
:104BD00036FA0CE0780702D54FF4006407E0380796
:104BE00002D54FF4805402E0284600F027FAF80579
:104BF00016D529684FF480708860B80503D528461B
:104C000000F01FFA0CE0780502D544F4005407E0E8
:104C1000380502D544F4804402E0284600F010FA3A
:104C2000F80316D529684FF480308860B80303D59F
:104C3000284600F008FA0CE0780302D544F400445A
:104C400007E0380302D544F4803402E0284600F03F
:104C5000F9F9300707D55FEACB6004D52968102041
:104C600044F40074C86070074FF0080707D55FEA86
:104C70000B7004D52868C760284600F0A9F9B00772
:104C800006D52868C068800702D0284600F0A1F940
:104C9000700607D55FEACA6004D52968102044F47D
:104CA00080640861B00607D55FEA0A7004D52868F9
:104CB0000761284600F090F9F00606D528680069DB
:104CC000800702D0284600F088F9B00308D55FEAD3
:104CD000C96005D5296810204860284600F080F991
:104CE000F00307D55FEA097004D5286847602846B5
:104CF00000F0AAF9300446D55FEA497040D5F005C6
:104D000004D55FEAC87001D044F00104B00504D5B1
:104D10005FEA887001D544F00204700504D55FEAAB
:104D2000487001D544F00404300529D518F0700FFF
:104D300026D008F07000402815D006DC102809D0D5
:104D400020280AD0302816D10AE050280ED060283A
:104D500011D10EE044F008040DE044F010040AE024
:104D600044F0200407E044F0400404E044F08004F0
:104D700001E044F480742868816921F07001816148
:104D8000296804204860002C05D0686A20436862C6
:104D90002846FFF761FEBDE8F09F70B5040003D020
:104DA00094F8200010B104E0012070BD204600F00E
:104DB00081F82068016841F00101016000F046FDC2
:104DC0000546052604E000F041FD401B0A2811D8E5
:104DD00020684068C007F6D02068016821F0020111
:104DE000016000F033FD05460BE000F02FFD401B95
:104DF0000A2806D9606A40F40030606284F82060B6
:104E0000D2E7206840688007EFD4207E0128206820
:104E100001683DD021F080010160607E012820689A
:104E2000016838D021F040010160A07E012820688F
:104E3000016833D021F020010160E07E0128206864
:104E400001682ED041F010010160207F0128206808
:104E5000016829D021F008010160607F01282068E5
:104E6000016824D021F004010160D4E90201084363
:104E7000D4E90412114308436168491E08432168BC
:104E8000C86100206062012084F82000002070BD0D
:104E900041F08001C0E741F04001C5E741F0200149
:104EA000CAE721F01001CFE741F00801D4E741F053
:104EB0000401D9E7F0B587B0044614216846FBF732
:104EC0006BFD3E4B3E48DFF8F0E01968D4F800C0B7
:104ED0003B4A03250226092710300024491CF445CB
:104EE0002AD11960012907D1016841F000710160E0
:104EF000006800F000700590106840F00800106035
:104F00001068CDE9005600F00800CDE9047069464C
:104F10002C48CDE9024500F09BFB0022052114201E
:104F200001F066F8142001F055F800220521152043
:104F300001F05EF815203AE0DFF88CE0F44538D156
:104F4000D0F800C04CF0806CC0F800C0D0F800C0B1
:104F500001290CF0806CCDF814C0196007D10168EC
:104F600041F000710160006800F000700590106869
:104F700040F002001060106802AB00F002000590E3
:104F80006020CDE9000683E8B00069460F4800F0D4
:104F90005FFB00220521402001F02AF8402001F0AB
:104FA00019F800220521412001F022F8412001F0EA
:104FB00011F807B0F0BD00000064004004000020BC
:104FC00030380240000C02400068004000040240FB
:104FD00070470021FEF730B870470121FEF72CB86A
:104FE0007047000070B5044690F82000012804D0F6
:104FF000606A40F40020606218E0022084F820001B
:105000002068016821F00101016000F01FFC0546E5
:105010000EE000BF00F01AFC401B0A2808D9606AA5
:1050200040F400306062052084F82000012070BD4B
:1050300020684068C007EDD1606270BD704770475E
:105040007047704770477047704710B5040002D032
:10505000607910B106E0012010BD002020712046CB
:1050600000F004F801206071002010BD08B5006850
:105070000649884208D10648016841F48051016020
:10508000006800F48050009008BD0000003002402D
:105090003038024070B500B3F9B14379012B1ED00E
:1050A000012646710223037105682C6802F0100383
:1050B00040F6FE729A409443D1E900210A439A4097
:1050C00022432A6001680A68C0249C40A2430A6007
:1050D000067100214171084670BD012070BD02209B
:1050E00070BD70B5040003D02079002510B105E033
:1050F000012070BD6571204600F008F80220207183
:10510000256101202071002070BD000010B586B01F
:10511000044614216846FBF73FFC11492068884289
:105120001CD110480021026842F000520260006861
:1051300000F0005005900B481038026842F0010260
:105140000260006800F0010005902020009003201C
:10515000CDE901016946044800F07AFA06B010BDB5
:105160000074004040380240000002402DE9F04148
:105170000446876D00F06AFB064694F8350000256A
:10518000022806D08020606584F834500120BDE8F4
:10519000F0812068016821F01601016020684169F2
:1051A00021F080014161206C08B9A06C20B1206819
:1051B000016821F0080101602068016821F0010107
:1051C00001600CE000F042FB801B052807D920207D
:1051D0006065032084F8350084F83450D7E72068F0
:1051E0000068C007EED194F85C103F208840B8609A
:1051F000012084F8350084F834500020C7E790F887
:105200003510022903D08021416501207047052116
:1052100080F835100068016821F00101016000206C
:10522000704790F8350070472DE9F84304464FF079
:105230000009CDF8009063484FF41651A56D006841
:10524000B0FBF1F72E6894F85C10082000FA01F129
:1052500031420FD021680A6852070BD50A6822F044
:1052600004020A6094F85C108840A860606D40F009
:105270000100606594F85C104FF0010808FA01F035
:10528000304208D021684969090604D5A860606DDC
:1052900040F00200606594F85C10042088403042C1
:1052A00008D021680968890704D5A860606D40F0BE
:1052B0000400606594F85C1010208840304218D0DB
:1052C00021680968090714D5A860206801684903A6
:1052D00004D50068000308D5A16C07E00168C90582
:1052E00003D4016821F008010160216C09B1204656
:1052F000884794F85C1020208840304231D02168E3
:105300000968C9062DD5A86094F8350005282068DD
:10531000016806D0490347D5006800031DD4616CBD
:105320001CE021F0160101602068416921F0800134
:105330004161206C08B9A06C20B12068016821F09F
:105340000801016094F85C103F208840A86084F850
:10535000358084F83490216D1FE0E16B09B120465F
:105360008847606D00282BD0606DC00714D00520E1
:1053700084F835002068016821F00101016000987F
:10538000401C0090B84203D820680068C007F6D1DE
:1053900084F8358084F83490E16C002910D001B095
:1053A0002046BDE8F04308470168C905D5D4016827
:1053B00021F01001016084F8358084F83490CCE746
:1053C000BDE8F883880000202DE9F041044600F094
:1053D0003DFA06465CB1022084F83500002584F8C9
:1053E00034502068016821F0010101600DE00120C6
:1053F000BDE8F08100F02AFA801B052805D920209D
:105400006065032084F83500F2E720680068C00773
:10541000F0D12268116820480140D4E90103184303
:10542000D4E903363343184363691843A369184327
:10543000E3691843236A18430843616A042903D1C6
:10544000D4E90B1319430843106020684069666A69
:1054500020F0070130460E43012704280CD1A06A32
:105460000643E06A40B12046FEF7E0FC20B1402050
:10547000606584F83570BAE7206846612046FEF71B
:10548000C1FC94F85C203F2191408160656584F8FF
:1054900035700020ACE700003F8010F02DE9F041AE
:1054A0000446866D90F83400002501280DD00120B7
:1054B00084F8340094F835700020012F07D084F868
:1054C000340002252846BDE8F0810220FBE70227D0
:1054D00084F8357060652046FEF7D2FC94F85C10C5
:1054E0003F208840B0602068016841F016010160EB
:1054F000206C20B12068016841F00801016020683B
:10550000016841F001010160DCE7000070B504466C
:1055100000F09CF90546601C02D004480078044461
:1055200000F094F9401BA042FAD370BD7C0000202B
:10553000704700002DE9F0412E4F38682E4C10F0D6
:10554000F20F4FF0FF384FF000060DD02078012801
:105550002CD0207802282DD0D4F81450FEF7B4FFB8
:10556000284600F04BF826703868C0070BD00120A1
:105570003860207801281FD02078022836D0606952
:10558000FFF7D6FF2670207800280DD11948001D9E
:10559000016821F07F010160016821F080710160E4
:1055A000016821F000710160BDE8F081E568C4F890
:1055B0000C80D3E72569D1E76068401E60606068B1
:1055C00050B1E068FFF7B4FFE068401CE060E068BD
:1055D000217AFEF725FFD6E74546C4F80C802670F1
:1055E000FEF746FF2846FFF7A3FFCCE7FEF740FF94
:1055F0002069C5E70C3C0240CC2D0020704700001C
:10560000034630B40B480021094C02780BE000BF80
:1056100054F82100C5889D4204D1856815B1AC4677
:1056200030BC6047491C9142F2D330BC7047000047
:10563000187E0020A8020020044910B50A68024222
:1056400002D00860FFF7DCFF10BD0000143C0140F1
:105650002DE9F84FDFF8BCA10022012503264FF009
:105660000F090AF1040BAAF1040E00BF0B6805FA3A
:1056700002F42340A34270D10F7907F00307012FF2
:1056800001D0022F16D187684FEA420806FA08FCBB
:1056900027EA0C07D1F80CC00CFA08FC4CEA070CFE
:1056A000C0F808C04768A7430C79C4F300149440BD
:1056B0003C4344600C79E443A4070AD0C4684FEA31
:1056C000420C06FA0CF7BC438F6807FA0CF7274325
:1056D000C7600C7904F00304022C12D1D40800EB4B
:1056E000840CDCF820405707FF0E09FA07F824EA7B
:1056F0000804D1F8108008FA07F848EA0408CCF842
:10570000208004684FEA420C06FA0CF7BC430F797C
:1057100007F0030707FA0CF7274307604C6814F4F7
:10572000403F70D03C4C276847F48047276024688E
:1057300022F0030704F480440094384C07EB040C77
:10574000DCF8084897074FEA177809FA08F7BC43CE
:10575000334FB84202D1002724E054E0314FB84221
:1057600001D101271EE0304FB84201D1022719E0D4
:105770002E4FB84201D1032714E02D4FB84201D17A
:1057800004270FE02B4FB84201D105270AE02A4F2A
:10579000B84201D1062705E0284FB84201D10727BA
:1057A00000E0082707FA08F72743CCF80878DAF86A
:1057B00000405746D1F804C09C435FEACC2C00D58A
:1057C0001C433C60DBF800405F46D1F804C09C43BA
:1057D0005FEA8C2C00D51C433C60DEF80040774625
:1057E000D1F804C09C435FEA8C3C00D51C433C606C
:1057F000084F083F3C68D1F804C09C435FEACC3CAA
:1058000000D51C433C60521C102AFFF42FAFBDE8AA
:10581000F88F0000083C014044380240003001404D
:10582000000002400004024000080240000C024058
:10583000001002400014024000180240001C024008
:105840000AB1816170470904FBE7000001488068E4
:10585000704700007C000020704770472DE9F04140
:10586000016804464A694E6890F83E000025D74317
:10587000FA0506D4F243D20503D46FF480720125F1
:105880004A61B90508D4F143C90505D422686FF40B
:10589000007145F002055161790525D4F143C90530
:1058A00022D4638D94F83D10226B202808D13BB997
:1058B000212910D029290ED0282901D1212A0AD046
:1058C00022686FF48061516145F00405102806D00C
:1058D000402804D008E0204603F092FD04E0206850
:1058E000016841F400710160380508D4F043C00537
:1058F00005D421686FF4006045F008054861002D6B
:1059000007D0206C284320642046BDE8F04103F016
:10591000FBB9BDE8F0812DE9F0470268002153682A
:10592000C66A90F83E4090F83D50102C12D0402CA2
:1059300010D0046C002C7DD05469E443A6077AD4BF
:10594000DE43B60577D4036C03B19169BDE8F04737
:1059500003F032BD976951694FF42A0CC9435FEADD
:10596000C1784FF02A4904D066452AD04E4528D048
:1059700010E0DE43B6050DD4C16A614501D10121B5
:1059800003E0C16A494501D10821C162BDE8F04781
:1059900003F078BC0E0716D4DE43B60513D4416C71
:1059A000C9B21161416B09B1C96B29B9816B002979
:1059B00007D0C96B002904D00068416841F4006138
:1059C0004160BDE8F0878E0706D4DE43B60503D4F8
:1059D000BDE8F04703F0CABBFE43526876074FEAC2
:1059E00002521DD4002AECDB0A0608D4DA43520521
:1059F00005D4490705D5BDE8F04703F05BBB49076F
:105A0000DFD4D9438905DCD4212D05D0402CD8D151
:105A1000BDE8F04703F07CBCBDE8F04703F008BBED
:105A2000002ACEDB4A060BD4DA43520508D44907D4
:105A300008D501E00DE00EE0BDE8F04703F07EBAC6
:105A40004907BED4D9438905BBD4BDE8F04703F06C
:105A500007BA916970E7E10606D4D943890503D4F2
:105A6000BDE8F04703F014BD2821212D27D0292DB2
:105A700025D0650655D4DD436D0552D4640752D553
:105A800090F83D30448D002C9BD01269446A2270FE
:105A9000426A521C4262428D521E4285428D002A49
:105AA0008FD12A2B8DD10268536823F48063536011
:105AB0002222026380F83D1000F0F6F981E7250606
:105AC00023D4DD436D0520D4640720D590F83D3004
:105AD000448D002CF2D0446A24781461426A521C2E
